:020000040800F2
:1000000000000220F5020008FB020008FF020008C1
:100010007103000875030008BD030008000000001C
:1000200000000000000000000000000005040008BF
:1000300009040008000000000D0400081104000875
:1000400021040008210400082104000821040008FC
:100050002104000821040008551300082513000896
:1000600021040008210400082104000821040008DC
:1000700021040008210400082104000821040008CC
:100080002104000821040008691100082104000867
:1000900021040008210400082104000821040008AC
:1000A000210400082104000821040008210400089C
:1000B000D9140008210400082104000821040008C4
:1000C000210400082104000821040008210400087C
:1000D000210400082104000821040008210400086C
:1000E000210400082104000821040008210400085C
:1000F000210400082104000821040008210400084C
:10010000210400082104000821040008210400083B
:10011000210400082104000821040008210400082B
:10012000210400082104000821040008210400081B
:100130002104000800000000000000002104000865
:1001400021040008210400082104000821040008FB
:1001500021040008210400082104000821040008EB
:1001600021040008210400082104000821040008DB
:1001700021040008210400082104000800000000F8
:100180000000000021040008000000000000000042
:100190002104000800000000000000002104000805
:1001A0000000000000000000000000002104000822
:1001B000210400082104000821040008210400088B
:1001C0002104000800B583B000F038FE384B394AEE
:1001D0001360394A1360394906E011681960043325
:1001E00004329842F9D82146354B994205D20A6823
:1001F0004B6801F10C048868F3E72E4B1A68314B09
:100200009A4200D0FEE72C4B1A682F4B9A42F9D144
:10021000274B2E4A13602E4A13602E4B05E0002018
:10022000106004329342FAD80B462B4A934204D210
:10023000194651F8082B5B68F4E7244B1B6813B987
:10024000234B1B6803B1FEE700F04CFF694601A891
:1002500000F086FD214B224CE41AA4100025AC428C
:1002600014DC204B204CE41AA4100025AC4213DC13
:100270000099019801F086F805461C4B1C4CE41AC5
:10028000A410002C0EDC284600F03CFD134B53F864
:10029000253098470135E2E7124B53F8253098474F
:1002A0000135E3E7013C114B53F824309847E8E768
:1002B000BABADECA0000002074000020240400083E
:1002C0003C040008785634123254769878000020A6
:1002D0001C0100203C0400084C0400084C040008E9
:1002E0004C0400084C0400084C0400084C040008AE
:1002F0004C04000808B5FFF765FF00BEFEE71EF0DE
:10030000040F0CBFEFF30880EFF309807146414AF8
:1003100010472DE9F04182B004468846124B5E6BCF
:100320009F6B9D6A1B6B13F0020F03D00E4BDB6AB1
:10033000002B0CDB0D4800F025FDCDF800803B467E
:1003400032462946204600F085FD00BEFEE74BF60A
:10035000AB6100F0F9FD0028ECD04FF00042024BF9
:10036000DA6202B0BDE8F08100ED00E0D81F0008BD
:1003700000BEFEE71EF0040F0CBFEFF30880EFF3A2
:1003800009807146244A10472DE9F04182B00446A5
:100390008846084B5E6B9F6B9D6A074800F0F2FC35
:1003A000CDF800803B4632462946204600F052FDFB
:1003B00000BEFEE700ED00E0E81F00081EF0040F9D
:1003C0000CBFEFF30880EFF309807146134A104722
:1003D0002DE9F04182B004468846084B5E6B9F6B66
:1003E0009D6A074800F0CEFCCDF800803B463246BF
:1003F0002946204600F02EFD00BEFEE700ED00E09D
:10040000F41F000800BEFEE700BEFEE700BEFEE7E8
:10041000704700001303000889030008D103000897
:0404200000BEFEE735
:100424004820000800000020780000204820000830
:1004340000000010000000107800002020010020BF
:08044400000000100000001090
:1004500010B50446074B1868074BA3FB0030800912
:1004600000F08EF8002221464FF0FF3000F044F8F3
:10047000002010BD0C000020D34D621008B50B4BBE
:100480001A6842F400721A601A6842F480621A60B4
:100490001A6842F480721A60032000F00FF80F20EF
:1004A000FFF7D6FF00F0F3FF002008BD003C02403C
:1004B000014B1868704700BF0C01002010B50446BE
:1004C000C31E042B0FD80A4AD36823F4E0631B042D
:1004D0001B0C240204F4E064234343F0BF6343F4A1
:1004E0000033D36010BDA421024800F041FCEAE7CC
:1004F00000ED00E0081E000870B505460C461646E3
:100500000F2A24D80F2C27D81A4BDB68C3F30223F9
:10051000C3F10702042A28BF0422191D062920D985
:10052000033B012101FA02F2013A14409C4001FA16
:1005300003F3013B33401C43002D14DB2401E4B2E0
:1005400005F1604505F5614585F8004370BDBC21A6
:10055000094800F00DFCD5E7BD21074800F008FC74
:10056000D2E70023DDE705F00F052401E4B2034BD9
:100570005C5570BD00ED00E0081E000814ED00E0C1
:100580000138B0F1807F0AD2064B5860F021064A4C
:1005900082F823100020986007221A60704701201B
:1005A000704700BF10E000E000ED00E010B5044629
:1005B000042800D038B9042C0BD0094A136823F062
:1005C0000403136010BD40F2B311064800F0D0FBE5
:1005D000F1E7034A136843F00403136010BD00BF42
:1005E00010E000E0081E000830B583B00446036840
:1005F0000F2B2DD8236813F0010F3CD06368012B1B
:1006000005D9052B03D0FA219F4800F0B1FB9F4B81
:100610009B6803F00C03042B24D09C4B9B6803F0D5
:100620000C03082B19D02279994B1A706368002BA0
:1006300050D0FFF73DFF0546944B1B6813F4003F75
:1006400019D1FFF735FF401B6428F5D90320D7E106
:10065000F5218D4800F08CFBCCE78C4B5B6813F4E4
:10066000800FE0D0894B1B6813F4003F03D0636810
:10067000002B00F0C281236813F0020F5CD0E36806
:10068000012B04D94FF496717F4800F071FB236968
:100690001F2B2ED87D4B9B6813F00C0F34D07B4B57
:1006A0009B6803F00C03082B29D0E368002B72D061
:1006B0000122784B1A60FFF7FBFE0546734B1B685F
:1006C00013F0020F58D1FFF7F3FE401B0228F5D9B3
:1006D000032095E1FFF7ECFE05466C4B1B6813F415
:1006E000003FC8D0FFF7E4FE401B6428F5D9032083
:1006F00086E140F22D11644800F03AFBCAE7634BF3
:100700005B6813F4800FD0D1604B1B6813F0020FAD
:1007100004D0E368012B01D0012071E15B4803683C
:1007200023F0F8032169F82292FAA2F2B2FA82F2D7
:1007300001FA02F213430360236813F0080F4ED04E
:100740006369012B04D940F26D114F4800F010FB92
:10075000636993B30122504B1A60FFF7A9FE054667
:100760004A4B5B6F13F0020F39D1FFF7A1FE401B1C
:100770000228F5D9032043E14448036823F0F80335
:100780002169F82292FAA2F2B2FA82F201FA02F296
:1007900013430360D0E700223E4B1A60FFF788FE48
:1007A00005463A4B1B6813F0020FC5D0FFF780FED9
:1007B000401B0228F5D9032022E10022364B1A60A3
:1007C000FFF776FE0546314B5B6F13F0020F06D044
:1007D000FFF76EFE401B0228F5D9032010E12368C5
:1007E00013F0040F5ED0A368012B06D9052B04D0AB
:1007F00040F29711244800F0BBFA00230193234BE9
:100800001A6C42F080521A641B6C03F080530193FF
:10081000019B224A136843F480731360FFF748FE7C
:1008200005461E4B1B6813F4807F06D1FFF740FE80
:10083000401B0228F5D90320E2E0227A184B1A70F7
:10084000A36883B1FFF734FE0546104B1B6F13F00E
:10085000020F27D1FFF72CFE401B41F2883398424C
:10086000F3D90320CCE0FFF723FE0546074B1B6FAF
:1008700013F0020F16D0FFF71BFE401B41F2883326
:100880009842F3D90320BBE04C1E00080038024018
:100890000238024000004742800E4742007000408C
:1008A00070380240A369022B1FD8A369002B00F007
:1008B000A680554A926802F00C02082A00F0A28035
:1008C000022B18D00022514B1A60FFF7F1FD0446AD
:1008D0004D4B1B6813F0007F00F08D80FFF7E8FDA3
:1008E000001B0228F4D903208AE04FF4E67148483F
:1008F00000F03EFAD9E7E3693BB1B3F5800F04D0CD
:1009000040F2D511424800F033FA236A3F2B28D831
:10091000636A323BB3F5BF7F29D8A36A022B0AD0A2
:10092000042B08D0062B06D0082B04D04FF4EC7112
:10093000374800F01DFAE36A043B0B2B1DD8002258
:10094000324B1A60FFF7B4FD05462F4B1B6813F0BE
:10095000007F18D0FFF7ACFD401B0228F5D903201B
:100960004EE04FF4EB712A4800F002FAD0E740F273
:10097000D711274800F0FCF9CFE740F2D9112448FD
:1009800000F0F6F9DBE7E369226A1343616A47F690
:10099000C07292FAA2F2B2FA82F201FA02F21343A0
:1009A000A26A5208013A4FF4403191FAA1F1B1FA2A
:1009B00081F18A401343E16A4FF0706292FAA2F229
:1009C000B2FA82F201FA02F213430F4A5360012293
:1009D0000E4B1A60FFF76CFD04460B4B1B6813F0BF
:1009E000007F06D1FFF764FD001B0228F5D9032024
:1009F00006E0002004E0002002E0012000E00020EA
:100A000003B030BD0120FBE70038024060004742E0
:100A10004C1E0008214B9B6803F00C03042B3AD0BA
:100A2000082B01D01E4870471C4B586800F03F004F
:100A30005B6813F4800F1ED01A4AB2FBF0F2174B1A
:100A4000586847F6C073184093FAA3F3B3FA83F3D8
:100A5000D84000FB02F0114B5B6803F440334FF4C5
:100A6000403292FAA2F2B2FA82F2D34001335B0032
:100A7000B0FBF3F070470A4AB2FBF0F2074B58683C
:100A800047F6C073184093FAA3F3B3FA83F3D84040
:100A900000FB02F0DFE70348704700BF0038024068
:100AA0000024F40000127A0070B504460D46036875
:100AB000013B0E2B11D80F2D15D88A4B1B6803F064
:100AC0000F039D4215D9EBB2864A1370136803F0E9
:100AD0000F039D420DD0012070BD40F237218248A6
:100AE00000F046F9E7E74FF40E717F4800F040F957
:100AF000E3E7236813F0020F1DD0A368A3B1802B96
:100B000012D0902B10D0A02B0ED0B02B0CD0C02B1D
:100B10000AD0D02B08D0E02B06D0F02B04D040F226
:100B20004F21714800F024F9704A936823F0F003D4
:100B3000A1680B439360236813F0010F6DD06368C5
:100B4000032B29D86368012B2CD09A1E012A30D997
:100B5000664A126812F0020F00F0C28063498A6888
:100B600022F0030213438B60FFF7A2FC0646636882
:100B7000012B25D0022B32D0032B3FD05B4B9B683F
:100B800013F00C0F49D0FFF793FC801B41F2883320
:100B90009842F3D9032070BD40F25621524800F02C
:100BA000E7F8CFE7514A126812F4003FD6D101208E
:100BB00070BD4E4A126812F0007FCFD1012070BD87
:100BC0004A4B9B6803F00C03042B26D0FFF770FC04
:100BD000801B41F288339842F2D9032070BD434B09
:100BE0009B6803F00C03082B17D0FFF761FC801BF8
:100BF00041F288339842F2D9032070BD3B4B9B6889
:100C000003F00C030C2B08D0FFF752FC801B41F2C1
:100C100088339842F2D9032070BD324B1B6803F031
:100C20000F039D4209D2EAB22E4B1A701B6803F0E3
:100C30000F039D4201D0012070BD236813F0040F03
:100C400019D0E36883B1B3F5805F0DD0B3F5A05F31
:100C50000AD0B3F5C05F07D0B3F5E05F04D04FF41E
:100C60002D71214800F084F8204A936823F4E05362
:100C7000E1680B439360236813F0080F1AD02369CF
:100C800083B1B3F5805F0DD0B3F5A05F0AD0B3F5A3
:100C9000C05F07D0B3F5E05F04D040F2BB2112483B
:100CA00000F066F8114A936823F46043216943EA2F
:100CB000C1039360FFF7AEFE0C4B9B6803F0F0039B
:100CC000F02292FAA2F2B2FA82F2D340084AD35C3E
:100CD000D840084B18600F20FFF7BAFB002070BD0A
:100CE000012070BD003C02404C1E0008003802404C
:100CF0003C1E00080C000020014B1868704700BF24
:100D00000C000020FEE7000008B5034800F052F890
:100D10000120FFF7F7FF00BF7C1E000808B503465F
:100D20000C4A12685AB10B4A1068033323F00303CC
:100D30000344094A934206D8064A136008BD07498E
:100D4000044A1160EFE700F0CDFB0C2303604FF085
:100D5000FF3008BD7C00002000FC012020010020A5
:100D600001230360014B0B60704700BF04000020AB
:100D700008B50A460146024800F004F8FFF7C4FF30
:100D8000901E00080FB400B583B004AB53F8042BD9
:100D900001938021064800F0DFFB002803DD0146B7
:100DA000034800F047F803B05DF804EB04B0704767
:100DB0008400002010B5044600F09AFB014620464E
:100DC00000F038F80121024800F034F810BD00BFEF
:100DD000541F00082DE9F04385B004460F464356E2
:100DE0000BB10E461EE0042528462146ABBE044644
:100DF000384605B0BDE8F08314F9011B04AA1A4473
:100E000002F8101C0133AB42F6D304AA13440022AB
:100E100003F8102CE9464FF0040840464946ABBEA3
:100E20008046761B002EE3D03546102E28BF1025B5
:100E30000023E8E708B5FFF7CDFF08BD08B500F0CF
:100E400093F8024B024A9A6008BD00BF00ED00E033
:100E500000000008F8B504460D4617461E46274810
:100E6000FFF790FF21682648FFF78CFF616825484F
:100E7000FFF788FFA1682448FFF784FFE168234853
:100E8000FFF780FF21692248FFF77CFF6169214855
:100E9000FFF778FFA1692048FFF774FFE1691F4859
:100EA000FFF770FF1E48FFF76DFF29461D48FFF74B
:100EB00069FF1D4CE16A1D48FFF764FF216B1C4868
:100EC000FFF760FFE16B1B48FFF75CFF15F0800F39
:100ED0000AD115F4004F0CD11748FFF753FF0699BC
:100EE0001648FFF74FFFF8BD39461548FFF74AFF90
:100EF000EFE731461348FFF745FFEDE7BC1E00085A
:100F0000CC1E0008DC1E0008EC1E0008FC1E0008B9
:100F10000C1F00081C1F00082C1F00083C1F0008A5
:100F20004C1F0008581F000800ED00E0681F000873
:100F3000781F0008881F0008B81F0008C01F00089D
:100F4000981F0008A81F000883691A888A4201D0E8
:100F5000002070470268033A012A03D802338361F4
:100F600001207047002070470C4B1A6842F00102C4
:100F70001A60002199601A6822F0847222F480328B
:100F80001A60074A5A601A6822F480221A60D960EF
:100F90004FF00062034B9A60704700BF0038024078
:100FA0001030002400ED00E0224B9B6803F00C039E
:100FB000042B14D0082B16D01BB11F4A1F4B1A60EC
:100FC00002E01D4A1D4B1A601A4B9B68C3F30313C2
:100FD0001B4AD15C194A1368CB4013607047194A09
:100FE000164B1A60F0E7134B5A685B6803F03F0337
:100FF00012F4800F13D0134AB2FBF3F20D4B5B686F
:10100000C3F3881303FB02F30A4A5268C2F3014296
:1010100001325200B3FBF2F3084A1360D4E7064AE8
:10102000B2FBF3F2034B5B68C3F3881303FB02F3D9
:10103000EAE700BF003802400024F4000C00002062
:101040000420000800127A0030B595B00024009406
:10105000214B1A6C42F080521A641B6C03F08053CF
:101060000093009B01941D4B1A6842F440421A60A1
:101070001B6803F440430193019B012307930893EA
:101080004FF480030E9308230F934FF4A87310932B
:1010900002251195072312930D9507A8FFF7A4FACF
:1010A0000F230293039504944FF4A05305934FF438
:1010B00080530693052102A8FFF7F6FCFFF71CFEFC
:1010C000074BA3FB00308009FFF75AFA0420FFF713
:1010D0006DFA15B030BD00BF00380240007000400E
:1010E000D34D621008B5FFF7C9F9FFF7ADFFFFF761
:1010F0005BFF08BD104A536C43F480735364A2F540
:101100004052136843F4407313600C4B5A6B42F027
:101110000E025A631A691A615A6842F020025A6034
:101120009A6842F4806242F003029A60044A53686B
:1011300043F44033536070470038024000200140C0
:1011400000230140064B1A6822F002021A609A68D6
:1011500042F080429A604FF48022024B1A6070473E
:101160000020014000E100E008B50C4BD86C0C4BAE
:101170001A68104418600B4B1B7803F00703022B0E
:1011800006DD064BD86CC0F3821000F025F808BDD0
:10119000C0F3C25000F020F808BD00BF002001409D
:1011A0001801002014010020094A136B43F00403C6
:1011B0001363084B1A6842F015021A605A6842F02D
:1011C00007025A609A6942F4E0229A61704700BFB0
:1011D0000038024000080240384B1B7803F003033C
:1011E000012B3AD053B1022B49D00722344B9A61DC
:1011F000344A136843F003031360704700F007009C
:101200000728FAD8DFE800F004080C1014181C2096
:1012100007222B4B9A6170472B4A294B9A617047E2
:101220002A4A274B9A617047294A254B9A61704791
:10123000284A234B9A617047274A214B9A6170478D
:10124000264A1F4B9A617047254A1D4B9A611D4AD9
:10125000136843F003031360704710F0010001D0DE
:1012600020B97047184A164B9A6170471A4A144BB6
:101270009A61144A136843F003031360704700F047
:1012800003000328B9D8DFE800F002060A0E0E4A70
:101290000B4B9A6170470E4A094B9A6170470E4A90
:1012A000074B9A6170474FF4E022054B9A61054A5B
:1012B000136843F003031360704700BF140100205C
:1012C00000080240003C0140060001000400030049
:1012D00005000200010006000300040002000500F2
:1012E000040007000C4A136B43F001031363A2F5DB
:1012F0006052D36843F00503D360084B1A6842F08C
:1013000003021A60DA6842F00302DA60044B4022FA
:101310001A6080221A60704700380240003C014089
:1013200000E100E0084A1378013B1370074B1A688C
:1013300022F001021A605A6982F001025A61002209
:10134000034B1A60704700BF14010020003C0140AD
:1013500018010020084A137801331370074B1A68EC
:1013600022F002021A605A6982F002025A610022D7
:10137000034B1A60704700BF14010020003C01407D
:101380001801002008B50022084B9A60FFF7AAFF59
:10139000FFF70AFF00F07CF8FFF7ACFEFFF7D2FE84
:1013A00000F036F800F068F8FEE700BF00380240B1
:1013B00082B00E4BD8600D4B9B6813F0800FFAD1B2
:1013C0000B4A936943F4003393614FF47A530193CA
:1013D00002E0019B013B0193019B002BF9DC044AD5
:1013E000936943F00203936102B07047003C0040F0
:1013F0000004024008B541EA402080B2FFF7D8FF60
:1014000008BD08B500210F20FFF7F4FF08BD00005C
:1014100008B5164A136B43F00603136314490B68AF
:1014200043F4815343F004030B6040238B6170232A
:101430000B62104B196841F420011960596A41F49C
:10144000F0715962136C43F400431364A2F5FE3249
:10145000136843F4964343F03C031360136843F06E
:1014600040031360FFF7CDFF08BD00BF0038024006
:10147000000402400008024008B54FF61171062032
:10148000FFF7B8FF35210420FFF7B4FF08BD704710
:101490000F4B1A6C42F001021A644FF4E0529A604A
:1014A0004FF0804340F2CF729A6240F2E732DA6244
:1014B0005A6942F001025A611A6922F001021A6166
:1014C0000122DA604FF08050024908601A607047CC
:1014D0000038024000E100E000224FF080431A6132
:1014E00070470000014B1868704700BF10000020D3
:1014F000034613F8012B002AFBD1181A0138704754
:1015000030B5141E05469BB0184605DA8B232B60B8
:101510004FF0FF301BB030BD4FF40273ADF80C300C
:1015200014BF04F1FF332346029305934FF6FF7374
:1015300000910491ADF80E3002461E9B6946284684
:1015400000F074F8431CBCBF8B232B60002CE1D04F
:10155000009B00221A70DDE707B5009313460A4688
:10156000014603480068FFF7CBFF03B05DF804FBBA
:10157000100000202DE9F0478E689E4282460C46FE
:101580009146984635D88A8912F4906F31D02568F3
:1015900009696F1A6569022305EB450595FBF3F5AB
:1015A00008F101033B449D4238BF1D46530531D528
:1015B000294600F089FB064650B90C23CAF80030D2
:1015C000A38943F04003A3814FF0FF30BDE8F087CB
:1015D0003A46216900F004FBA38923F4906343F0A9
:1015E0008003A381266165613E44ED1B2660A560F2
:1015F0004646464528BF464632464946206800F0E2
:10160000FAFAA3689B1BA36023681E44266000208F
:10161000BDE8F0872A4600F0B5FB06460028E1D178
:101620002169504600F002FBC7E700002DE9F04FAA
:101630009DB0804603938B891C060D4616460FD538
:101640000B696BB9402100F03FFB2860286128B985
:101650000C23C8F800304FF0FF30C5E040236B6129
:101660000023099320238DF8293030238DF82A3068
:101670004FF0010B37463C4614F8013B002B3CD1A0
:10168000B7EB060A0BD05346324629464046FFF7D1
:1016900071FF013000F0A380099B534409933B780C
:1016A000002B00F09C8000234FF0FF32049307933F
:1016B000059206938DF853301A93052221785048ED
:1016C00000F03EFA671C049BD8B9D90644BF20221B
:1016D0008DF853201A0744BF2B228DF8532022780F
:1016E0002A2A16D0079A00210A20274601343B787F
:1016F000303B092B51D9C9B111E0252BC0D0274669
:10170000B9E73F4A801A0BFA00F0184304903C46B0
:10171000D3E7039A111D12680391002A01DB079297
:1017200004E0524243F00203079204933B782E2BCD
:101730000ED17B782A2B07F1010132D1039B1A1DB0
:101740001B680392002BB8BF4FF0FF33023705939D
:101750002C4C39780322204600F0F2F938B14023AE
:10176000001B03FA00F0049B03430493013739780C
:1017700025488DF8281006227E1C00F0E1F900288B
:1017800035D0224BFBB9039B073323F00703083303
:101790000393099B4B4409936CE700FB0232012140
:1017A000A3E70023059318460A240F4601313A782F
:1017B000303A092A03D9002BCAD00590C8E704FBA8
:1017C00000200123F1E703AB00932A46104B04A944
:1017D0004046AFF30080B0F1FF3F8146D9D1AB89DD
:1017E0005B063FF538AF09981DB0BDE8F08F03AB3D
:1017F00000932A46064B04A9404600F081F8EAE728
:10180000142000081A2000081E2000080000000014
:10181000751500082DE9F04791461F468A680B6947
:10182000DDF820809342B8BF1346C9F8003091F824
:10183000432006460C4612B10133C9F80030236834
:10184000990642BFD9F800300233C9F80030256844
:1018500015F0060507D104F1190AE368D9F800204C
:101860009B1A9D4229DB94F843302268003318BF4D
:10187000012392062ED404F1430239463046C04774
:10188000013021D02368E568D9F8002003F0060371
:10189000042B08BFAD1AA36822690CBF25EAE575C1
:1018A00000259342C4BF9B1AED184FF000091A346B
:1018B0004D451BD10020BDE8F08701235246394633
:1018C0003046C047013003D14FF0FF30BDE8F0870C
:1018D0000135C2E7E1185A1C302081F84300224448
:1018E00094F8451082F843100233C4E701232246DE
:1018F00039463046C0470130E6D009F10109D7E743
:101900002DE9F04317460A7E85B06E2A98460646B2
:101910000C460C9B01F1430E00F0BC801AD8632AE0
:101920002ED00AD8002A00F0C880582A00F08A80F9
:1019300004F1420584F842202AE0642A01D0692A91
:10194000F6D121681A6811F0800F23D0111D19609B
:10195000136827E0732A00F0B48008D86F2A2AD0D1
:10196000702AE5D10A6842F020020A6003E0752A75
:1019700021D0782ADCD1782284F845206E4964E0B1
:101980001A6801F14205111D1960136884F842308C
:101990000123A3E011F0400F02F104011960D7D038
:1019A000B2F90030002B03DA2D225B4284F8432089
:1019B00062490A2217E02068196810F0800F03D0EE
:1019C000081D18600B6806E010F0400F01F10400DC
:1019D0001860F7D00B8859496F2A14BF0A220822D1
:1019E000002084F843006568A560002DC0F29C804B
:1019F000206820F004002060002B3FD1002D40F033
:101A000095807546082A0BD12368DA0708D5236923
:101A100062689A42DEBF302305F8013C05F1FF35CC
:101A2000AEEB05032361CDF800803B4603AA2146B7
:101A30003046FFF7EFFE013055D14FF0FF3005B0D3
:101A4000BDE8F08381F845203C492268186812F00F
:101A5000800F00F104051D6001D0036802E0550607
:101A6000FBD50388D00744BF42F0200222601BB997
:101A7000226822F0200222601022B1E77546B3FBF3
:101A8000F2F002FB1033CB5C05F8013D0346002861
:101A9000F5D1B7E708681A68496910F0800F04D0DB
:101AA000101D18601368196007E010F0400F02F174
:101AB000040018601368F6D019800023236175466E
:101AC000B1E71A68111D196015686268002128467F
:101AD00000F036F808B1401B6060636823610023A2
:101AE00084F843309FE723692A4639463046C04789
:101AF0000130A2D023689B0707D5002504F11909FE
:101B0000E368039A9B1A9D4205DBE068039B9842B9
:101B1000B8BF184693E701234A4639463046C047C6
:101B200001308AD00135EBE7002BA7D10B7884F880
:101B3000423004F1420565E7362000082520000800
:101B400001F0FF01102A2BDB10F0070F08D010F86E
:101B5000013B013A8B422DD010F0070F42B3F6D172
:101B6000F0B441EA012141EA014122F007047FF08B
:101B700000070023F0E80256083C85EA010586EAE2
:101B8000010685FA47F5A3FA87F586FA47F6A5FA1E
:101B900087F68EB9EED1F0BC01F0FF0102F007022A
:101BA00032B110F8013B013A83EA010313B1F8D1D5
:101BB0000020704701387047002D06BF35460338B6
:101BC000073815F0010F07D1013015F4807F02BFEF
:101BD000013015F4C03F0130F0BC0138704700BF40
:101BE00010B5431E0A44914200D110BD11F8014BBB
:101BF00003F8014FF7E7884210B501EB020303D861
:101C0000421E99420CD110BD9842F9D28118D21AC5
:101C1000D34200D110BD13F8014D01F8014DF7E793
:101C200011F8014B02F8014FEBE7000038B505460B
:101C3000002945D051F8043C0C1F002BB8BFE41814
:101C400000F0D6F81F4A1368104633B96360146079
:101C50002846BDE8384000F0CCB8A3420CD9216832
:101C60006218934204BF1A685B68636004BF52182D
:101C700022600460ECE713465A680AB1A242FAD91E
:101C800019685818A0420BD12068014458188242A4
:101C90001960DDD1106852685A6001441960D7E7B5
:101CA00002D90C232B60D3E7206821188A4204BF95
:101CB00011685268626004BF091821605C60C7E760
:101CC00038BD00BF0401002070B5CD1C25F0030510
:101CD00008350C2D38BF0C25002D064601DBA94226
:101CE00003D90C233360002070BD00F081F8234A33
:101CF0001468214691B9224C23681BB9304600F084
:101D000067F820602946304600F062F8431C26D16F
:101D10000C233360304600F06CF8E4E70B685B1B83
:101D20001AD40B2B0FD90B60CD50CC18304600F0D5
:101D300060F804F10B00231D20F00700C31A1BD02C
:101D40005A42E25070BD8C420DBF63684B686360BD
:101D5000136018BF0C46E9E70C464968CAE7C41C83
:101D600024F00304A04205D0211A304600F030F8D8
:101D70000130CDD02560D9E770BD00BF040100203F
:101D800008010020F8B5074614460E4621B9114651
:101D9000BDE8F840FFF798BF22B9FFF747FF254697
:101DA0002846F8BD00F026F884420FD9214638466F
:101DB000FFF78AFF05460028F2D031462246FFF79A
:101DC0000FFF31463846FFF731FFE9E73546E7E7D1
:101DD00038B5064C0023054608462360FEF79EFFF3
:101DE000431C02D1236803B12B6038BD10010020D1
:101DF0007047704751F8040C0028A0F10400BCBFE4
:101E00000B58C018704700002E2E2F73797374651D
:101E10006D2F7372632F73746D333266342D686166
:101E20006C2F73746D3332663478785F68616C5FE1
:101E3000636F727465782E6300000000000000007C
:101E40000102030401020304060708092E2E2F7362
:101E5000797374656D2F7372632F73746D3332668B
:101E6000342D68616C2F73746D3332663478785F0B
:101E700068616C5F7263632E6300000061626F7261
:101E80007428292C2065786974696E672E2E2E00BF
:101E90006173736572745F706172616D2829206669
:101EA00061696C65643A2066696C6520222573223D
:101EB0002C206C696E652025640A000053746163F0
:101EC0006B206672616D653A0A0000002052302076
:101ED0003D2020253038580A0000000020523120D3
:101EE0003D2020253038580A0000000020523220C2
:101EF0003D2020253038580A0000000020523320B1
:101F00003D2020253038580A000000002052313290
:101F1000203D20253038580A00000000204C522077
:101F20003D2020253038580A000000002050432072
:101F30003D2020253038580A000000002050535220
:101F4000203D20253038580A000000004653522F0B
:101F50004641523A0A0000002043465352203D2099
:101F600020253038580A00002048465352203D2092
:101F700020253038580A00002044465352203D2086
:101F800020253038580A00002041465352203D2079
:101F900020253038580A0000204D4D464152203D42
:101FA00020253038580A00002042464152203D206A
:101FB00020253038580A00004D6973630A0000007C
:101FC000204C522F4558435F52455455524E3D20A8
:101FD000253038580A0000005B486172644661751C
:101FE0006C745D0A000000005B4275734661756C9D
:101FF000745D0A005B55736167654661756C745D5D
:102000000A000000000000000000000001020304BC
:1020100006070809232D302B2000686C4C006566EC
:102020006745464700303132333435363738394129
:10203000424344454600303132333435363738393F
:072040006162636465660044
:102048007856341280000020000000000024F400BC
:102058001400002000000000000000000000000044
:102068000000000000000000000000000000000068
:102078000000000000000000000000000000000058
:102088000000000000000000000000000000000048
:102098000000000000000000000000000000000038
:1020A8000000000000000000000000000000000028
:0820B80000000000325476988C
:04000005080001C529
:00000001FF
